{
  "contractName": "ElectionContract",
  "abi": [
    {
      "inputs": [],
      "stateMutability": "nonpayable",
      "type": "constructor"
    },
    {
      "anonymous": false,
      "inputs": [
        {
          "indexed": false,
          "internalType": "string",
          "name": "_message",
          "type": "string"
        }
      ],
      "name": "startElectionEvent",
      "type": "event"
    },
    {
      "anonymous": false,
      "inputs": [
        {
          "indexed": true,
          "internalType": "uint256",
          "name": "_candidateId",
          "type": "uint256"
        }
      ],
      "name": "votedEvent",
      "type": "event"
    },
    {
      "inputs": [
        {
          "internalType": "address",
          "name": "",
          "type": "address"
        },
        {
          "internalType": "address",
          "name": "",
          "type": "address"
        }
      ],
      "name": "candidates",
      "outputs": [
        {
          "internalType": "string",
          "name": "name",
          "type": "string"
        },
        {
          "internalType": "uint256",
          "name": "voteCount",
          "type": "uint256"
        }
      ],
      "stateMutability": "view",
      "type": "function",
      "constant": true
    },
    {
      "inputs": [
        {
          "internalType": "address",
          "name": "",
          "type": "address"
        }
      ],
      "name": "elections",
      "outputs": [
        {
          "internalType": "address",
          "name": "id",
          "type": "address"
        },
        {
          "internalType": "uint256",
          "name": "startedAt",
          "type": "uint256"
        },
        {
          "internalType": "uint256",
          "name": "endedAt",
          "type": "uint256"
        },
        {
          "internalType": "uint256",
          "name": "candidateCount",
          "type": "uint256"
        },
        {
          "internalType": "uint256",
          "name": "voterCount",
          "type": "uint256"
        },
        {
          "internalType": "string",
          "name": "electionName",
          "type": "string"
        },
        {
          "internalType": "bool",
          "name": "hasEnded",
          "type": "bool"
        }
      ],
      "stateMutability": "view",
      "type": "function",
      "constant": true
    },
    {
      "inputs": [
        {
          "internalType": "address",
          "name": "",
          "type": "address"
        },
        {
          "internalType": "address",
          "name": "",
          "type": "address"
        }
      ],
      "name": "voters",
      "outputs": [
        {
          "internalType": "string",
          "name": "name",
          "type": "string"
        },
        {
          "internalType": "bool",
          "name": "hasVoted",
          "type": "bool"
        }
      ],
      "stateMutability": "view",
      "type": "function",
      "constant": true
    },
    {
      "inputs": [
        {
          "internalType": "string",
          "name": "_electionName",
          "type": "string"
        }
      ],
      "name": "createElection",
      "outputs": [
        {
          "internalType": "address",
          "name": "",
          "type": "address"
        }
      ],
      "stateMutability": "nonpayable",
      "type": "function"
    },
    {
      "inputs": [
        {
          "internalType": "address",
          "name": "_electionId",
          "type": "address"
        }
      ],
      "name": "getElection",
      "outputs": [
        {
          "components": [
            {
              "internalType": "address",
              "name": "id",
              "type": "address"
            },
            {
              "internalType": "uint256",
              "name": "startedAt",
              "type": "uint256"
            },
            {
              "internalType": "uint256",
              "name": "endedAt",
              "type": "uint256"
            },
            {
              "internalType": "uint256",
              "name": "candidateCount",
              "type": "uint256"
            },
            {
              "internalType": "uint256",
              "name": "voterCount",
              "type": "uint256"
            },
            {
              "internalType": "string",
              "name": "electionName",
              "type": "string"
            },
            {
              "internalType": "bool",
              "name": "hasEnded",
              "type": "bool"
            }
          ],
          "internalType": "struct ElectionContract.Election",
          "name": "",
          "type": "tuple"
        }
      ],
      "stateMutability": "view",
      "type": "function",
      "constant": true
    },
    {
      "inputs": [
        {
          "internalType": "address",
          "name": "_electionId",
          "type": "address"
        }
      ],
      "name": "startElection",
      "outputs": [],
      "stateMutability": "nonpayable",
      "type": "function"
    },
    {
      "inputs": [
        {
          "internalType": "address",
          "name": "_electionId",
          "type": "address"
        }
      ],
      "name": "endElection",
      "outputs": [],
      "stateMutability": "nonpayable",
      "type": "function"
    },
    {
      "inputs": [
        {
          "internalType": "address",
          "name": "_electionId",
          "type": "address"
        },
        {
          "internalType": "string",
          "name": "_name",
          "type": "string"
        },
        {
          "internalType": "address",
          "name": "_candidateAddress",
          "type": "address"
        }
      ],
      "name": "addCandidate",
      "outputs": [],
      "stateMutability": "nonpayable",
      "type": "function"
    },
    {
      "inputs": [
        {
          "internalType": "address",
          "name": "_electionId",
          "type": "address"
        },
        {
          "internalType": "string",
          "name": "_name",
          "type": "string"
        },
        {
          "internalType": "address",
          "name": "_voterAddress",
          "type": "address"
        }
      ],
      "name": "addVoter",
      "outputs": [],
      "stateMutability": "nonpayable",
      "type": "function"
    },
    {
      "inputs": [
        {
          "internalType": "address",
          "name": "_voterAddress",
          "type": "address"
        },
        {
          "internalType": "address",
          "name": "_candidateAddress",
          "type": "address"
        },
        {
          "internalType": "address",
          "name": "_electionId",
          "type": "address"
        }
      ],
      "name": "vote",
      "outputs": [],
      "stateMutability": "nonpayable",
      "type": "function"
    }
  ],
  "bytecode": "0x608060405234801561001057600080fd5b50600080546001600160a01b03191633179055610eb1806100326000396000f3fe608060405234801561001057600080fd5b506004361061009e5760003560e01c80639e0f7152116100665780639e0f71521461013b578063b275f3081461015c578063ce7be5431461017c578063e6a5e61d1461018f578063f7610be0146101a25761009e565b806307e4b70a146100a357806315cf4a5f146100b85780631cc59aa3146100e157806324ddc76014610102578063529eba5a14610128575b600080fd5b6100b66100b1366004610ac7565b6101b5565b005b6100cb6100c6366004610bcf565b61025f565b6040516100d89190610c74565b60405180910390f35b6100f46100ef366004610ae9565b61038e565b6040516100d8929190610cd7565b610115610110366004610ac7565b61043c565b6040516100d89796959493929190610c88565b6100b6610136366004610b62565b61050c565b61014e610149366004610ae9565b6105aa565b6040516100d8929190610cfb565b61016f61016a366004610ac7565b610656565b6040516100d89190610ddd565b6100b661018a366004610b62565b61075a565b6100b661019d366004610ac7565b6107e8565b6100b66101b0366004610b1d565b610871565b6001600160a01b03811660009081526003602052604090206006015460ff16156101fa5760405162461bcd60e51b81526004016101f190610d4a565b60405180910390fd5b6001600160a01b03811660009081526003602052604090819020426002820155600601805460ff19166001179055517fd4980b6304b0bd2d686bac16c276fb4e75f6e0a3a6fe9547c8f01cbba133e4b79061025490610db2565b60405180910390a150565b60008060023342604051602001610277929190610c36565b60408051601f198184030181529082905261029191610c58565b602060405180830381855afa1580156102ae573d6000803e3d6000fd5b5050506040513d601f19601f820116820180604052508101906102d19190610bb7565b6040805160e081018252606092831c808252600060208084018281528486018381529685018381526080860184815260a087018c815260c08801869052868652600380865298909520875181546001600160a01b0319166001600160a01b039091161781559251600184015597516002830155519581019590955594516004850155518051919550919361036c926005850192910190610949565b5060c091909101516006909101805460ff191691151591909117905592915050565b6002602081815260009384526040808520825292845292829020805483516001821615610100026000190190911692909204601f810185900485028301850190935282825292909183918301828280156104295780601f106103fe57610100808354040283529160200191610429565b820191906000526020600020905b81548152906001019060200180831161040c57829003601f168201915b5050506001909301549192505060ff1682565b60036020818152600092835260409283902080546001808301546002808501549685015460048601546005870180548b516101009782161597909702600019011693909304601f8101899004890286018901909a528985526001600160a01b039095169892979690959392908301828280156104f95780601f106104ce576101008083540402835291602001916104f9565b820191906000526020600020905b8154815290600101906020018083116104dc57829003601f168201915b5050506006909301549192505060ff1687565b6001600160a01b038084166000818152600360209081526040808320600401548151808301835288815280840185905294845260028352818420958716845294825290912082518051919261056692849290910190610949565b506020918201516001918201805460ff19169115159190911790556001600160a01b0395909516600090815260039091526040902093016004909301929092555050565b600160208181526000938452604080852082529284529282902080548351600293821615610100026000190190911692909204601f810185900485028301850190935282825292909183918301828280156106465780601f1061061b57610100808354040283529160200191610646565b820191906000526020600020905b81548152906001019060200180831161062957829003601f168201915b5050505050908060010154905082565b61065e6109c7565b6001600160a01b03828116600090815260036020818152604092839020835160e0810185528154909516855260018082015486840152600280830154878701529382015460608701526004820154608087015260058201805486516101009382161593909302600019011694909404601f8101849004840282018401909552848152909360a0860193919283018282801561073a5780601f1061070f5761010080835404028352916020019161073a565b820191906000526020600020905b81548152906001019060200180831161071d57829003601f168201915b50505091835250506006919091015460ff16151560209091015292915050565b6001600160a01b038084166000818152600360208181526040808420909201548251808401845288815280830185905294845260018252828420958716845294815291208251805191926107b392849290910190610949565b506020918201516001918201556001600160a01b03909516600090815260039182905260409020919094019301929092555050565b6001600160a01b03811660009081526003602052604090206006015460ff16156108245760405162461bcd60e51b81526004016101f190610d4a565b6001600160a01b0381166000908152600360205260409081902042600190910155517fd4980b6304b0bd2d686bac16c276fb4e75f6e0a3a6fe9547c8f01cbba133e4b79061025490610db2565b6001600160a01b03811660009081526003602052604090206006015460ff16156108ad5760405162461bcd60e51b81526004016101f190610d1d565b6001600160a01b0380821660009081526002602090815260408083209387168352929052206001015460ff16156108f65760405162461bcd60e51b81526004016101f190610d81565b6001600160a01b039081166000818152600160208181526040808420968616845295815285832082018054830190559282526002835284822095909316815293905291208101805460ff19169091179055565b828054600181600116156101000203166002900490600052602060002090601f016020900481019282601f1061098a57805160ff19168380011785556109b7565b828001600101855582156109b7579182015b828111156109b757825182559160200191906001019061099c565b506109c3929150610a0f565b5090565b6040518060e0016040528060006001600160a01b0316815260200160008152602001600081526020016000815260200160008152602001606081526020016000151581525090565b610a2991905b808211156109c35760008155600101610a15565b90565b80356001600160a01b0381168114610a4357600080fd5b92915050565b600082601f830112610a59578081fd5b813567ffffffffffffffff80821115610a70578283fd5b604051601f8301601f191681016020018281118282101715610a90578485fd5b604052828152925082848301602001861015610aab57600080fd5b8260208601602083013760006020848301015250505092915050565b600060208284031215610ad8578081fd5b610ae28383610a2c565b9392505050565b60008060408385031215610afb578081fd5b610b058484610a2c565b9150610b148460208501610a2c565b90509250929050565b600080600060608486031215610b31578081fd5b610b3b8585610a2c565b9250610b4a8560208601610a2c565b9150610b598560408601610a2c565b90509250925092565b600080600060608486031215610b76578283fd5b610b808585610a2c565b9250602084013567ffffffffffffffff811115610b9b578283fd5b610ba786828701610a49565b925050610b598560408601610a2c565b600060208284031215610bc8578081fd5b5051919050565b600060208284031215610be0578081fd5b813567ffffffffffffffff811115610bf6578182fd5b610c0284828501610a49565b949350505050565b60008151808452610c22816020860160208601610e4b565b601f01601f19169290920160200192915050565b60609290921b6bffffffffffffffffffffffff19168252601482015260340190565b60008251610c6a818460208701610e4b565b9190910192915050565b6001600160a01b0391909116815260200190565b600060018060a01b038916825287602083015286604083015285606083015284608083015260e060a0830152610cc160e0830185610c0a565b905082151560c083015298975050505050505050565b600060408252610cea6040830185610c0a565b905082151560208301529392505050565b600060408252610d0e6040830185610c0a565b90508260208301529392505050565b602080825260139082015272456c656374696f6e2068617320656e6465642160681b604082015260600190565b6020808252601f908201527f54686520656c656374696f6e2068617320616c726561647920656e6465642100604082015260600190565b602080825260179082015276557365722068617320616c726561647920766f7465642160481b604082015260600190565b602080825260119082015270456c656374696f6e20737461727465642160781b604082015260600190565b60006020825260018060a01b038351166020830152602083015160408301526040830151606083015260608301516080830152608083015160a083015260a083015160e060c0840152610e34610100840182610c0a565b60c0850151151560e0850152809250505092915050565b60005b83811015610e66578181015183820152602001610e4e565b83811115610e75576000848401525b5050505056fea26469706673582212204b66a07a152fb8fe625c50c6a24c3d69b37c7133001b1763a2561916a63f2cbc64736f6c63430006060033",
  "immutableReferences": {},
  "source": "pragma solidity >=0.4.21 <0.7.0;\r\npragma experimental ABIEncoderV2;\r\n\r\ncontract ElectionContract {\r\n    \r\n    address admin;\r\n\r\n    struct Candidate {\r\n        string name;\r\n        uint voteCount;\r\n    }\r\n    \r\n    struct Voter {\r\n        string name;\r\n        bool hasVoted;\r\n    }\r\n    \r\n    struct Election {\r\n        address id;\r\n        uint startedAt;\r\n        uint endedAt;\r\n        uint candidateCount;\r\n        uint voterCount;\r\n        string electionName;\r\n        bool hasEnded;\r\n    }\r\n    \r\n\r\n    mapping(address => mapping(address=>Candidate)) public candidates;\r\n    mapping(address => mapping(address=>Voter)) public voters;\r\n    mapping(address => Election) public elections;\r\n\r\n    \r\n    event votedEvent(\r\n        uint indexed _candidateId\r\n    );\r\n    event startElectionEvent(string _message);\r\n    \r\n    \r\n    constructor() public {\r\n        admin = msg.sender;\r\n    }\r\n    \r\n    function createElection(string memory _electionName) public returns (address) {\r\n        address _id = address(bytes20(sha256(abi.encodePacked(msg.sender, now))));\r\n        elections[_id] = Election(_id, 0, 0, 0, 0, _electionName, false);\r\n        return _id;\r\n    }\r\n    \r\n    function getElection(address _electionId) public view returns(Election memory){\r\n        return elections[_electionId];\r\n    }\r\n    \r\n    function startElection(address _electionId) public {\r\n        require(elections[_electionId].hasEnded == false, \"The election has already ended!\");\r\n        elections[_electionId].startedAt = now;\r\n        emit startElectionEvent(\"Election started!\");\r\n    }\r\n    \r\n    function endElection(address _electionId) public {\r\n        require(elections[_electionId].hasEnded == false, \"The election has already ended!\");\r\n        elections[_electionId].endedAt = now;\r\n        elections[_electionId].hasEnded = true;\r\n        emit startElectionEvent(\"Election started!\");\r\n    }\r\n\r\n\r\n    function addCandidate(address _electionId, string memory _name, address _candidateAddress) public {\r\n        uint _no = elections[_electionId].candidateCount;\r\n        candidates[_electionId][_candidateAddress] = Candidate(_name, 0);\r\n        _no += 1;\r\n        elections[_electionId].candidateCount = _no;\r\n    }\r\n    \r\n    function addVoter(address _electionId, string memory _name, address _voterAddress) public {\r\n        uint _no = elections[_electionId].voterCount;\r\n        voters[_electionId][_voterAddress] = Voter(_name, false);\r\n        _no += 1;\r\n        elections[_electionId].voterCount = _no;\r\n    }\r\n    \r\n\r\n    function vote(address _voterAddress, address _candidateAddress, address _electionId) public {\r\n        require(elections[_electionId].hasEnded == false, \"Election has ended!\");\r\n        require(voters[_electionId][_voterAddress].hasVoted == false, \"User has already voted!\");\r\n        uint _count = candidates[_electionId][_candidateAddress].voteCount;\r\n        _count += 1;\r\n        candidates[_electionId][_candidateAddress].voteCount = _count;        \r\n        voters[_electionId][_voterAddress].hasVoted = true; \r\n    }\r\n}",
  "sourcePath": "C:/Users/lenovo/Desktop/E-Mat/contracts/ElectionContract.sol",
  "compiler": {
    "name": "solc",
    "version": "0.6.6+commit.6c089d02.Emscripten.clang"
  },
  "schemaVersion": "3.4.1",
  "updatedAt": "2021-06-18T09:53:05.816Z",
  "networkType": "ethereum",
  "devdoc": {
    "methods": {}
  },
  "userdoc": {
    "methods": {}
  }
}