{
  "contractName": "TestMath",
  "abi": [
    {
      "inputs": [
        {
          "internalType": "uint256",
          "name": "x",
          "type": "uint256"
        }
      ],
      "name": "firstNoSet",
      "outputs": [],
      "stateMutability": "nonpayable",
      "type": "function"
    },
    {
      "inputs": [
        {
          "internalType": "uint256",
          "name": "y",
          "type": "uint256"
        }
      ],
      "name": "secondNoSet",
      "outputs": [],
      "stateMutability": "nonpayable",
      "type": "function"
    },
    {
      "inputs": [],
      "name": "add",
      "outputs": [
        {
          "internalType": "uint256",
          "name": "",
          "type": "uint256"
        }
      ],
      "stateMutability": "view",
      "type": "function",
      "constant": true
    }
  ],
  "bytecode": "0x608060405234801561001057600080fd5b5060d98061001f6000396000f3fe6080604052348015600f57600080fd5b5060043610603c5760003560e01c80634f2be91f14604157806371050a82146059578063f91b539a146075575b600080fd5b6047608f565b60408051918252519081900360200190f35b607360048036036020811015606d57600080fd5b50356099565b005b607360048036036020811015608957600080fd5b5035609e565b6001546000540190565b600055565b60015556fea264697066735822122091550c8cadbd2fd76f8312a0de53454d5e6dd0815fa12a0ed00fd4d1e96df41764736f6c63430006060033",
  "immutableReferences": {},
  "source": "pragma solidity >=0.4.21 <0.7.0;\r\n\r\ncontract TestMath {\r\n\r\n    uint firstNo ;\r\n    uint secondNo ;\r\n\r\n    function firstNoSet(uint x) public {\r\n        firstNo = x;\r\n    }\r\n\r\n    function secondNoSet(uint y) public {\r\n        secondNo = y;\r\n    }\r\n\r\n    function add() view public returns (uint) {\r\n        uint Sum = firstNo + secondNo ;\r\n        return Sum;\r\n    }\r\n}",
  "sourcePath": "C:/Users/lenovo/Desktop/E-Mat-Test/contracts/Test.sol",
  "compiler": {
    "name": "solc",
    "version": "0.6.6+commit.6c089d02.Emscripten.clang"
  },
  "schemaVersion": "3.4.1",
  "updatedAt": "2021-06-11T06:03:19.909Z",
  "networkType": "ethereum",
  "devdoc": {
    "methods": {}
  },
  "userdoc": {
    "methods": {}
  }
}